{
  "contractName": "Marketplace",
  "abi": [
    {
      "anonymous": false,
      "inputs": [
        {
          "indexed": false,
          "internalType": "uint256",
          "name": "id",
          "type": "uint256"
        },
        {
          "indexed": false,
          "internalType": "uint256",
          "name": "tokenId",
          "type": "uint256"
        },
        {
          "indexed": false,
          "internalType": "address",
          "name": "tokenAddress",
          "type": "address"
        },
        {
          "indexed": false,
          "internalType": "uint256",
          "name": "askingPrice",
          "type": "uint256"
        }
      ],
      "name": "itemAdded",
      "type": "event"
    },
    {
      "anonymous": false,
      "inputs": [
        {
          "indexed": false,
          "internalType": "uint256",
          "name": "id",
          "type": "uint256"
        },
        {
          "indexed": false,
          "internalType": "address",
          "name": "buyer",
          "type": "address"
        },
        {
          "indexed": false,
          "internalType": "uint256",
          "name": "askingPrice",
          "type": "uint256"
        }
      ],
      "name": "itemSold",
      "type": "event"
    },
    {
      "inputs": [
        {
          "internalType": "uint256",
          "name": "",
          "type": "uint256"
        }
      ],
      "name": "itemsForSale",
      "outputs": [
        {
          "internalType": "uint256",
          "name": "id",
          "type": "uint256"
        },
        {
          "internalType": "address",
          "name": "tokenAddress",
          "type": "address"
        },
        {
          "internalType": "uint256",
          "name": "tokenId",
          "type": "uint256"
        },
        {
          "internalType": "address payable",
          "name": "seller",
          "type": "address"
        },
        {
          "internalType": "uint256",
          "name": "askingPrice",
          "type": "uint256"
        },
        {
          "internalType": "bool",
          "name": "isSold",
          "type": "bool"
        }
      ],
      "stateMutability": "view",
      "type": "function"
    },
    {
      "inputs": [
        {
          "internalType": "uint256",
          "name": "tokenId",
          "type": "uint256"
        },
        {
          "internalType": "address",
          "name": "tokenAddress",
          "type": "address"
        },
        {
          "internalType": "uint256",
          "name": "askingPrice",
          "type": "uint256"
        }
      ],
      "name": "addItemToMarket",
      "outputs": [
        {
          "internalType": "uint256",
          "name": "",
          "type": "uint256"
        }
      ],
      "stateMutability": "nonpayable",
      "type": "function"
    },
    {
      "inputs": [
        {
          "internalType": "uint256",
          "name": "id",
          "type": "uint256"
        }
      ],
      "name": "buyItem",
      "outputs": [],
      "stateMutability": "payable",
      "type": "function"
    }
  ],
  "bytecode": "0x608060405234801561001057600080fd5b50611353806100206000396000f3fe6080604052600436106100345760003560e01c8063092d0afc146100395780634abc22021461007b578063e7fb74c7146100b8575b600080fd5b34801561004557600080fd5b50610060600480360381019061005b9190610edc565b6100d4565b604051610072969594939291906111a8565b60405180910390f35b34801561008757600080fd5b506100a2600480360381019061009d9190610f05565b61016d565b6040516100af9190611156565b60405180910390f35b6100d260048036038101906100cd9190610edc565b610636565b005b600081815481106100e457600080fd5b90600052602060002090600602016000915090508060000154908060010160009054906101000a900473ffffffffffffffffffffffffffffffffffffffff16908060020154908060030160009054906101000a900473ffffffffffffffffffffffffffffffffffffffff16908060040154908060050160009054906101000a900460ff16905086565b6000828460008290503373ffffffffffffffffffffffffffffffffffffffff168173ffffffffffffffffffffffffffffffffffffffff16636352211e846040518263ffffffff1660e01b81526004016101c69190611156565b60206040518083038186803b1580156101de57600080fd5b505afa1580156101f2573d6000803e3d6000fd5b505050506040513d601f19601f820116820180604052508101906102169190610eb3565b73ffffffffffffffffffffffffffffffffffffffff161461023657600080fd5b858760008290503073ffffffffffffffffffffffffffffffffffffffff168173ffffffffffffffffffffffffffffffffffffffff1663081812fc846040518263ffffffff1660e01b815260040161028d9190611156565b60206040518083038186803b1580156102a557600080fd5b505afa1580156102b9573d6000803e3d6000fd5b505050506040513d601f19601f820116820180604052508101906102dd9190610eb3565b73ffffffffffffffffffffffffffffffffffffffff16146102fd57600080fd5b60001515600160008b73ffffffffffffffffffffffffffffffffffffffff1673ffffffffffffffffffffffffffffffffffffffff16815260200190815260200160002060008c815260200190815260200160002060009054906101000a900460ff161515146103a1576040517f08c379a0000000000000000000000000000000000000000000000000000000008152600401610398906110f6565b60405180910390fd5b60008080549050905060006040518060c001604052808381526020018c73ffffffffffffffffffffffffffffffffffffffff1681526020018d81526020013373ffffffffffffffffffffffffffffffffffffffff1681526020018b81526020016000151581525090806001815401808255809150506001900390600052602060002090600602016000909190919091506000820151816000015560208201518160010160006101000a81548173ffffffffffffffffffffffffffffffffffffffff021916908373ffffffffffffffffffffffffffffffffffffffff1602179055506040820151816002015560608201518160030160006101000a81548173ffffffffffffffffffffffffffffffffffffffff021916908373ffffffffffffffffffffffffffffffffffffffff1602179055506080820151816004015560a08201518160050160006101000a81548160ff021916908315150217905550505060018060008c73ffffffffffffffffffffffffffffffffffffffff1673ffffffffffffffffffffffffffffffffffffffff16815260200190815260200160002060008d815260200190815260200160002060006101000a81548160ff02191690831515021790555080600082815481106105a2577f4e487b7100000000000000000000000000000000000000000000000000000000600052603260045260246000fd5b906000526020600020906006020160000154146105e8577f4e487b7100000000000000000000000000000000000000000000000000000000600052600160045260246000fd5b7fd3742413e0092c98517699ed9f8567218c740a5a265a7a986d9430d597937522818c8c8c60405161061d9493929190611209565b60405180910390a1809750505050505050509392505050565b806000805490508110801561069557508060008281548110610681577f4e487b7100000000000000000000000000000000000000000000000000000000600052603260045260246000fd5b906000526020600020906006020160000154145b6106d4576040517f08c379a00000000000000000000000000000000000000000000000000000000081526004016106cb90611116565b60405180910390fd5b816000151560008281548110610713577f4e487b7100000000000000000000000000000000000000000000000000000000600052603260045260246000fd5b906000526020600020906006020160050160009054906101000a900460ff16151514610774576040517f08c379a000000000000000000000000000000000000000000000000000000000815260040161076b90611136565b60405180910390fd5b600083815481106107ae577f4e487b7100000000000000000000000000000000000000000000000000000000600052603260045260246000fd5b906000526020600020906006020160010160009054906101000a900473ffffffffffffffffffffffffffffffffffffffff166000848154811061081a577f4e487b7100000000000000000000000000000000000000000000000000000000600052603260045260246000fd5b90600052602060002090600602016002015460008290503073ffffffffffffffffffffffffffffffffffffffff168173ffffffffffffffffffffffffffffffffffffffff1663081812fc846040518263ffffffff1660e01b81526004016108819190611156565b60206040518083038186803b15801561089957600080fd5b505afa1580156108ad573d6000803e3d6000fd5b505050506040513d601f19601f820116820180604052508101906108d19190610eb3565b73ffffffffffffffffffffffffffffffffffffffff16146108f157600080fd5b6000868154811061092b577f4e487b7100000000000000000000000000000000000000000000000000000000600052603260045260246000fd5b90600052602060002090600602016004015434101561097f576040517f08c379a0000000000000000000000000000000000000000000000000000000008152600401610976906110d6565b60405180910390fd5b600086815481106109b9577f4e487b7100000000000000000000000000000000000000000000000000000000600052603260045260246000fd5b906000526020600020906006020160030160009054906101000a900473ffffffffffffffffffffffffffffffffffffffff1673ffffffffffffffffffffffffffffffffffffffff163373ffffffffffffffffffffffffffffffffffffffff161415610a2357600080fd5b600160008781548110610a5f577f4e487b7100000000000000000000000000000000000000000000000000000000600052603260045260246000fd5b906000526020600020906006020160050160006101000a81548160ff021916908315150217905550600060016000808981548110610ac6577f4e487b7100000000000000000000000000000000000000000000000000000000600052603260045260246000fd5b906000526020600020906006020160010160009054906101000a900473ffffffffffffffffffffffffffffffffffffffff1673ffffffffffffffffffffffffffffffffffffffff1673ffffffffffffffffffffffffffffffffffffffff1681526020019081526020016000206000808981548110610b6d577f4e487b7100000000000000000000000000000000000000000000000000000000600052603260045260246000fd5b906000526020600020906006020160020154815260200190815260200160002060006101000a81548160ff02191690831515021790555060008681548110610bde577f4e487b7100000000000000000000000000000000000000000000000000000000600052603260045260246000fd5b906000526020600020906006020160010160009054906101000a900473ffffffffffffffffffffffffffffffffffffffff1673ffffffffffffffffffffffffffffffffffffffff166342842e0e60008881548110610c65577f4e487b7100000000000000000000000000000000000000000000000000000000600052603260045260246000fd5b906000526020600020906006020160030160009054906101000a900473ffffffffffffffffffffffffffffffffffffffff163360008a81548110610cd2577f4e487b7100000000000000000000000000000000000000000000000000000000600052603260045260246000fd5b9060005260206000209060060201600201546040518463ffffffff1660e01b8152600401610d029392919061109f565b600060405180830381600087803b158015610d1c57600080fd5b505af1158015610d30573d6000803e3d6000fd5b5050505060008681548110610d6e577f4e487b7100000000000000000000000000000000000000000000000000000000600052603260045260246000fd5b906000526020600020906006020160030160009054906101000a900473ffffffffffffffffffffffffffffffffffffffff1673ffffffffffffffffffffffffffffffffffffffff166108fc349081150290604051600060405180830381858888f19350505050158015610de5573d6000803e3d6000fd5b507f8164c6f8917e418c49813e4586897c7067de5a886aa1bea980cd11fa57d48264863360008981548110610e43577f4e487b7100000000000000000000000000000000000000000000000000000000600052603260045260246000fd5b906000526020600020906006020160040154604051610e6493929190611171565b60405180910390a1505050505050565b600081359050610e83816112ef565b92915050565b600081519050610e98816112ef565b92915050565b600081359050610ead81611306565b92915050565b600060208284031215610ec557600080fd5b6000610ed384828501610e89565b91505092915050565b600060208284031215610eee57600080fd5b6000610efc84828501610e9e565b91505092915050565b600080600060608486031215610f1a57600080fd5b6000610f2886828701610e9e565b9350506020610f3986828701610e74565b9250506040610f4a86828701610e9e565b9150509250925092565b610f5d816112b9565b82525050565b610f6c81611271565b82525050565b610f7b8161125f565b82525050565b610f8a81611283565b82525050565b6000610f9d60158361124e565b91507f4e6f7420656e6f7567682066756e64732073656e7400000000000000000000006000830152602082019050919050565b6000610fdd601c8361124e565b91507f4974656d20697320616c726561647920757020666f722073616c6521000000006000830152602082019050919050565b600061101d60138361124e565b91507f436f756c64206e6f742066696e64206974656d000000000000000000000000006000830152602082019050919050565b600061105d60158361124e565b91507f4974656d20697320616c726561647920736f6c642100000000000000000000006000830152602082019050919050565b611099816112af565b82525050565b60006060820190506110b46000830186610f54565b6110c16020830185610f72565b6110ce6040830184611090565b949350505050565b600060208201905081810360008301526110ef81610f90565b9050919050565b6000602082019050818103600083015261110f81610fd0565b9050919050565b6000602082019050818103600083015261112f81611010565b9050919050565b6000602082019050818103600083015261114f81611050565b9050919050565b600060208201905061116b6000830184611090565b92915050565b60006060820190506111866000830186611090565b6111936020830185610f72565b6111a06040830184611090565b949350505050565b600060c0820190506111bd6000830189611090565b6111ca6020830188610f72565b6111d76040830187611090565b6111e46060830186610f63565b6111f16080830185611090565b6111fe60a0830184610f81565b979650505050505050565b600060808201905061121e6000830187611090565b61122b6020830186611090565b6112386040830185610f72565b6112456060830184611090565b95945050505050565b600082825260208201905092915050565b600061126a8261128f565b9050919050565b600061127c8261128f565b9050919050565b60008115159050919050565b600073ffffffffffffffffffffffffffffffffffffffff82169050919050565b6000819050919050565b60006112c4826112cb565b9050919050565b60006112d6826112dd565b9050919050565b60006112e88261128f565b9050919050565b6112f88161125f565b811461130357600080fd5b50565b61130f816112af565b811461131a57600080fd5b5056fea26469706673582212200cb3b91ddb3dac0b600c24197fc31963300f3164aca733ed72349164d857e09e64736f6c63430008000033",
  "immutableReferences": {},
  "source": "// SPDX-License-Identifier: MIT\r\n\r\npragma solidity ^0.8.0;\r\n\r\nimport \"@openzeppelin/contracts/token/ERC721/IERC721.sol\";\r\n\r\ncontract Marketplace {\r\n    struct AuctionItem {\r\n        uint256 id;\r\n        address tokenAddress;\r\n        uint256 tokenId;\r\n        address payable seller;\r\n        uint256 askingPrice;\r\n        bool isSold;\r\n    }\r\n\r\n    AuctionItem[] public itemsForSale;\r\n    mapping (address => mapping (uint256 => bool)) activeItems;\r\n\r\n    event itemAdded(uint256 id, uint256 tokenId, address tokenAddress, uint256 askingPrice);\r\n    event itemSold(uint256 id, address buyer, uint256 askingPrice);\r\n\r\n    modifier OnlyItemOwner(address tokenAddress, uint256 tokenId){\r\n        IERC721 tokenContract = IERC721(tokenAddress);\r\n        require(tokenContract.ownerOf(tokenId) == msg.sender);\r\n        _;\r\n    }\r\n\r\n    modifier HasTransferApproval(address tokenAddress, uint256 tokenId){\r\n        IERC721 tokenContract = IERC721(tokenAddress);\r\n        require(tokenContract.getApproved(tokenId) == address(this));\r\n        _;\r\n    }\r\n\r\n    modifier ItemExists(uint256 id){\r\n        require(id < itemsForSale.length && itemsForSale[id].id == id, \"Could not find item\");\r\n        _;\r\n    }\r\n\r\n    modifier IsForSale(uint256 id){\r\n        require(itemsForSale[id].isSold == false, \"Item is already sold!\");\r\n        _;\r\n    }\r\n\r\n    function addItemToMarket(uint256 tokenId, address tokenAddress, uint256 askingPrice) OnlyItemOwner(tokenAddress,tokenId) HasTransferApproval(tokenAddress,tokenId) external returns (uint256){\r\n        require(activeItems[tokenAddress][tokenId] == false, \"Item is already up for sale!\");\r\n        uint256 newItemId = itemsForSale.length;\r\n        itemsForSale.push(AuctionItem(newItemId, tokenAddress, tokenId, payable(msg.sender), askingPrice, false));\r\n        activeItems[tokenAddress][tokenId] = true;\r\n\r\n        assert(itemsForSale[newItemId].id == newItemId);\r\n        emit itemAdded(newItemId, tokenId, tokenAddress, askingPrice);\r\n        return newItemId;\r\n    }\r\n\r\n    function buyItem(uint256 id) payable external ItemExists(id) IsForSale(id) HasTransferApproval(itemsForSale[id].tokenAddress,itemsForSale[id].tokenId){\r\n        require(msg.value >= itemsForSale[id].askingPrice, \"Not enough funds sent\");\r\n        require(msg.sender != itemsForSale[id].seller);\r\n\r\n        itemsForSale[id].isSold = true;\r\n        activeItems[itemsForSale[id].tokenAddress][itemsForSale[id].tokenId] = false;\r\n        IERC721(itemsForSale[id].tokenAddress).safeTransferFrom(itemsForSale[id].seller, msg.sender, itemsForSale[id].tokenId);\r\n        itemsForSale[id].seller.transfer(msg.value);\r\n\r\n        emit itemSold(id, msg.sender,itemsForSale[id].askingPrice);\r\n    }\r\n}",
  "sourcePath": "D:\\BlockChainLearning\\nftBsc\\starter_kit\\src\\contracts\\Marketplace.sol",
  "compiler": {
    "name": "solc",
    "version": "0.8.0+commit.c7dfd78e.Emscripten.clang"
  },
  "schemaVersion": "3.4.3",
  "updatedAt": "2021-10-19T09:49:58.228Z",
  "devdoc": {
    "kind": "dev",
    "methods": {},
    "version": 1
  },
  "userdoc": {
    "kind": "user",
    "methods": {},
    "version": 1
  }
}