{
  "contractName": "myNFTs",
  "abi": [
    {
      "inputs": [],
      "stateMutability": "nonpayable",
      "type": "constructor"
    },
    {
      "anonymous": false,
      "inputs": [
        {
          "indexed": true,
          "internalType": "address",
          "name": "owner",
          "type": "address"
        },
        {
          "indexed": true,
          "internalType": "address",
          "name": "approved",
          "type": "address"
        },
        {
          "indexed": true,
          "internalType": "uint256",
          "name": "tokenId",
          "type": "uint256"
        }
      ],
      "name": "Approval",
      "type": "event"
    },
    {
      "anonymous": false,
      "inputs": [
        {
          "indexed": true,
          "internalType": "address",
          "name": "owner",
          "type": "address"
        },
        {
          "indexed": true,
          "internalType": "address",
          "name": "operator",
          "type": "address"
        },
        {
          "indexed": false,
          "internalType": "bool",
          "name": "approved",
          "type": "bool"
        }
      ],
      "name": "ApprovalForAll",
      "type": "event"
    },
    {
      "anonymous": false,
      "inputs": [
        {
          "indexed": true,
          "internalType": "address",
          "name": "from",
          "type": "address"
        },
        {
          "indexed": true,
          "internalType": "address",
          "name": "to",
          "type": "address"
        },
        {
          "indexed": true,
          "internalType": "uint256",
          "name": "tokenId",
          "type": "uint256"
        }
      ],
      "name": "Transfer",
      "type": "event"
    },
    {
      "inputs": [
        {
          "internalType": "uint256",
          "name": "",
          "type": "uint256"
        }
      ],
      "name": "Items",
      "outputs": [
        {
          "internalType": "uint256",
          "name": "id",
          "type": "uint256"
        },
        {
          "internalType": "string",
          "name": "name",
          "type": "string"
        },
        {
          "internalType": "string",
          "name": "description",
          "type": "string"
        },
        {
          "internalType": "address",
          "name": "creator",
          "type": "address"
        },
        {
          "internalType": "string",
          "name": "uri",
          "type": "string"
        }
      ],
      "stateMutability": "view",
      "type": "function",
      "constant": true
    },
    {
      "inputs": [
        {
          "internalType": "address",
          "name": "to",
          "type": "address"
        },
        {
          "internalType": "uint256",
          "name": "tokenId",
          "type": "uint256"
        }
      ],
      "name": "approve",
      "outputs": [],
      "stateMutability": "nonpayable",
      "type": "function"
    },
    {
      "inputs": [
        {
          "internalType": "address",
          "name": "owner",
          "type": "address"
        }
      ],
      "name": "balanceOf",
      "outputs": [
        {
          "internalType": "uint256",
          "name": "",
          "type": "uint256"
        }
      ],
      "stateMutability": "view",
      "type": "function",
      "constant": true
    },
    {
      "inputs": [
        {
          "internalType": "uint256",
          "name": "tokenId",
          "type": "uint256"
        }
      ],
      "name": "getApproved",
      "outputs": [
        {
          "internalType": "address",
          "name": "",
          "type": "address"
        }
      ],
      "stateMutability": "view",
      "type": "function",
      "constant": true
    },
    {
      "inputs": [
        {
          "internalType": "address",
          "name": "owner",
          "type": "address"
        },
        {
          "internalType": "address",
          "name": "operator",
          "type": "address"
        }
      ],
      "name": "isApprovedForAll",
      "outputs": [
        {
          "internalType": "bool",
          "name": "",
          "type": "bool"
        }
      ],
      "stateMutability": "view",
      "type": "function",
      "constant": true
    },
    {
      "inputs": [],
      "name": "name",
      "outputs": [
        {
          "internalType": "string",
          "name": "",
          "type": "string"
        }
      ],
      "stateMutability": "view",
      "type": "function",
      "constant": true
    },
    {
      "inputs": [
        {
          "internalType": "uint256",
          "name": "tokenId",
          "type": "uint256"
        }
      ],
      "name": "ownerOf",
      "outputs": [
        {
          "internalType": "address",
          "name": "",
          "type": "address"
        }
      ],
      "stateMutability": "view",
      "type": "function",
      "constant": true
    },
    {
      "inputs": [
        {
          "internalType": "address",
          "name": "from",
          "type": "address"
        },
        {
          "internalType": "address",
          "name": "to",
          "type": "address"
        },
        {
          "internalType": "uint256",
          "name": "tokenId",
          "type": "uint256"
        }
      ],
      "name": "safeTransferFrom",
      "outputs": [],
      "stateMutability": "nonpayable",
      "type": "function"
    },
    {
      "inputs": [
        {
          "internalType": "address",
          "name": "from",
          "type": "address"
        },
        {
          "internalType": "address",
          "name": "to",
          "type": "address"
        },
        {
          "internalType": "uint256",
          "name": "tokenId",
          "type": "uint256"
        },
        {
          "internalType": "bytes",
          "name": "_data",
          "type": "bytes"
        }
      ],
      "name": "safeTransferFrom",
      "outputs": [],
      "stateMutability": "nonpayable",
      "type": "function"
    },
    {
      "inputs": [
        {
          "internalType": "address",
          "name": "operator",
          "type": "address"
        },
        {
          "internalType": "bool",
          "name": "approved",
          "type": "bool"
        }
      ],
      "name": "setApprovalForAll",
      "outputs": [],
      "stateMutability": "nonpayable",
      "type": "function"
    },
    {
      "inputs": [
        {
          "internalType": "bytes4",
          "name": "interfaceId",
          "type": "bytes4"
        }
      ],
      "name": "supportsInterface",
      "outputs": [
        {
          "internalType": "bool",
          "name": "",
          "type": "bool"
        }
      ],
      "stateMutability": "view",
      "type": "function",
      "constant": true
    },
    {
      "inputs": [],
      "name": "symbol",
      "outputs": [
        {
          "internalType": "string",
          "name": "",
          "type": "string"
        }
      ],
      "stateMutability": "view",
      "type": "function",
      "constant": true
    },
    {
      "inputs": [],
      "name": "totalCount",
      "outputs": [
        {
          "internalType": "uint256",
          "name": "",
          "type": "uint256"
        }
      ],
      "stateMutability": "view",
      "type": "function",
      "constant": true
    },
    {
      "inputs": [
        {
          "internalType": "address",
          "name": "from",
          "type": "address"
        },
        {
          "internalType": "address",
          "name": "to",
          "type": "address"
        },
        {
          "internalType": "uint256",
          "name": "tokenId",
          "type": "uint256"
        }
      ],
      "name": "transferFrom",
      "outputs": [],
      "stateMutability": "nonpayable",
      "type": "function"
    },
    {
      "inputs": [
        {
          "internalType": "string",
          "name": "uri",
          "type": "string"
        },
        {
          "internalType": "string",
          "name": "nam",
          "type": "string"
        },
        {
          "internalType": "string",
          "name": "description",
          "type": "string"
        }
      ],
      "name": "createItem",
      "outputs": [
        {
          "internalType": "uint256",
          "name": "",
          "type": "uint256"
        }
      ],
      "stateMutability": "nonpayable",
      "type": "function"
    },
    {
      "inputs": [
        {
          "internalType": "uint256",
          "name": "tokenId",
          "type": "uint256"
        }
      ],
      "name": "tokenURI",
      "outputs": [
        {
          "internalType": "string",
          "name": "",
          "type": "string"
        }
      ],
      "stateMutability": "view",
      "type": "function",
      "constant": true
    }
  ],
  "bytecode": "0x608060405260006006553480156200001657600080fd5b506040518060400160405280601581526020017f4d757a616d6d696c5369646469717569546f6b656e00000000000000000000008152506040518060400160405280600381526020017f4d5354000000000000000000000000000000000000000000000000000000000081525081600090805190602001906200009b929190620000bd565b508060019080519060200190620000b4929190620000bd565b505050620001d2565b828054620000cb906200016d565b90600052602060002090601f016020900481019282620000ef57600085556200013b565b82601f106200010a57805160ff19168380011785556200013b565b828001600101855582156200013b579182015b828111156200013a5782518255916020019190600101906200011d565b5b5090506200014a91906200014e565b5090565b5b80821115620001695760008160009055506001016200014f565b5090565b600060028204905060018216806200018657607f821691505b602082108114156200019d576200019c620001a3565b5b50919050565b7f4e487b7100000000000000000000000000000000000000000000000000000000600052602260045260246000fd5b61297780620001e26000396000f3fe608060405234801561001057600080fd5b50600436106101005760003560e01c80636352211e11610097578063a22cb46511610066578063a22cb465146102d7578063b88d4fde146102f3578063c87b56dd1461030f578063e985e9c51461033f57610100565b80636352211e1461022957806370a0823114610259578063876ab02b1461028957806395d89b41146102b957610100565b806317b47cc4116100d357806317b47cc41461019f57806323b872dd146101d357806334eafb11146101ef57806342842e0e1461020d57610100565b806301ffc9a71461010557806306fdde0314610135578063081812fc14610153578063095ea7b314610183575b600080fd5b61011f600480360381019061011a9190611c52565b61036f565b60405161012c919061238c565b60405180910390f35b61013d610451565b60405161014a91906123a7565b60405180910390f35b61016d60048036038101906101689190611d3b565b6104e3565b60405161017a9190612325565b60405180910390f35b61019d60048036038101906101989190611c16565b610568565b005b6101b960048036038101906101b49190611d3b565b610680565b6040516101ca9594939291906125a4565b60405180910390f35b6101ed60048036038101906101e89190611b10565b61086e565b005b6101f76108ce565b6040516102049190612589565b60405180910390f35b61022760048036038101906102229190611b10565b6108d4565b005b610243600480360381019061023e9190611d3b565b6108f4565b6040516102509190612325565b60405180910390f35b610273600480360381019061026e9190611aab565b6109a6565b6040516102809190612589565b60405180910390f35b6102a3600480360381019061029e9190611ca4565b610a5e565b6040516102b09190612589565b60405180910390f35b6102c1610b8f565b6040516102ce91906123a7565b60405180910390f35b6102f160048036038101906102ec9190611bda565b610c21565b005b61030d60048036038101906103089190611b5f565b610da2565b005b61032960048036038101906103249190611d3b565b610e04565b60405161033691906123a7565b60405180910390f35b61035960048036038101906103549190611ad4565b610ef4565b604051610366919061238c565b60405180910390f35b60007f80ac58cd000000000000000000000000000000000000000000000000000000007bffffffffffffffffffffffffffffffffffffffffffffffffffffffff1916827bffffffffffffffffffffffffffffffffffffffffffffffffffffffff1916148061043a57507f5b5e139f000000000000000000000000000000000000000000000000000000007bffffffffffffffffffffffffffffffffffffffffffffffffffffffff1916827bffffffffffffffffffffffffffffffffffffffffffffffffffffffff1916145b8061044a575061044982610f88565b5b9050919050565b60606000805461046090612815565b80601f016020809104026020016040519081016040528092919081815260200182805461048c90612815565b80156104d95780601f106104ae576101008083540402835291602001916104d9565b820191906000526020600020905b8154815290600101906020018083116104bc57829003601f168201915b5050505050905090565b60006104ee82610ff2565b61052d576040517f08c379a0000000000000000000000000000000000000000000000000000000008152600401610524906124e9565b60405180910390fd5b6004600083815260200190815260200160002060009054906101000a900473ffffffffffffffffffffffffffffffffffffffff169050919050565b6000610573826108f4565b90508073ffffffffffffffffffffffffffffffffffffffff168373ffffffffffffffffffffffffffffffffffffffff1614156105e4576040517f08c379a00000000000000000000000000000000000000000000000000000000081526004016105db90612549565b60405180910390fd5b8073ffffffffffffffffffffffffffffffffffffffff1661060361105e565b73ffffffffffffffffffffffffffffffffffffffff16148061063257506106318161062c61105e565b610ef4565b5b610671576040517f08c379a000000000000000000000000000000000000000000000000000000000815260040161066890612469565b60405180910390fd5b61067b8383611066565b505050565b60086020528060005260406000206000915090508060000154908060010180546106a990612815565b80601f01602080910402602001604051908101604052809291908181526020018280546106d590612815565b80156107225780601f106106f757610100808354040283529160200191610722565b820191906000526020600020905b81548152906001019060200180831161070557829003601f168201915b50505050509080600201805461073790612815565b80601f016020809104026020016040519081016040528092919081815260200182805461076390612815565b80156107b05780601f10610785576101008083540402835291602001916107b0565b820191906000526020600020905b81548152906001019060200180831161079357829003601f168201915b5050505050908060030160009054906101000a900473ffffffffffffffffffffffffffffffffffffffff16908060040180546107eb90612815565b80601f016020809104026020016040519081016040528092919081815260200182805461081790612815565b80156108645780601f1061083957610100808354040283529160200191610864565b820191906000526020600020905b81548152906001019060200180831161084757829003601f168201915b5050505050905085565b61087f61087961105e565b8261111f565b6108be576040517f08c379a00000000000000000000000000000000000000000000000000000000081526004016108b590612569565b60405180910390fd5b6108c98383836111fd565b505050565b60065481565b6108ef83838360405180602001604052806000815250610da2565b505050565b6000806002600084815260200190815260200160002060009054906101000a900473ffffffffffffffffffffffffffffffffffffffff169050600073ffffffffffffffffffffffffffffffffffffffff168173ffffffffffffffffffffffffffffffffffffffff16141561099d576040517f08c379a0000000000000000000000000000000000000000000000000000000008152600401610994906124a9565b60405180910390fd5b80915050919050565b60008073ffffffffffffffffffffffffffffffffffffffff168273ffffffffffffffffffffffffffffffffffffffff161415610a17576040517f08c379a0000000000000000000000000000000000000000000000000000000008152600401610a0e90612489565b60405180910390fd5b600360008373ffffffffffffffffffffffffffffffffffffffff1673ffffffffffffffffffffffffffffffffffffffff168152602001908152602001600020549050919050565b6000610a6a6007611459565b6000610a76600761146f565b9050610a82338261147d565b6040518060a001604052808281526020018581526020018481526020013373ffffffffffffffffffffffffffffffffffffffff1681526020018681525060086000838152602001908152602001600020600082015181600001556020820151816001019080519060200190610af89291906118cf565b506040820151816002019080519060200190610b159291906118cf565b5060608201518160030160006101000a81548173ffffffffffffffffffffffffffffffffffffffff021916908373ffffffffffffffffffffffffffffffffffffffff1602179055506080820151816004019080519060200190610b799291906118cf565b5090505080600681905550809150509392505050565b606060018054610b9e90612815565b80601f0160208091040260200160405190810160405280929190818152602001828054610bca90612815565b8015610c175780601f10610bec57610100808354040283529160200191610c17565b820191906000526020600020905b815481529060010190602001808311610bfa57829003601f168201915b5050505050905090565b610c2961105e565b73ffffffffffffffffffffffffffffffffffffffff168273ffffffffffffffffffffffffffffffffffffffff161415610c97576040517f08c379a0000000000000000000000000000000000000000000000000000000008152600401610c8e90612429565b60405180910390fd5b8060056000610ca461105e565b73ffffffffffffffffffffffffffffffffffffffff1673ffffffffffffffffffffffffffffffffffffffff16815260200190815260200160002060008473ffffffffffffffffffffffffffffffffffffffff1673ffffffffffffffffffffffffffffffffffffffff16815260200190815260200160002060006101000a81548160ff0219169083151502179055508173ffffffffffffffffffffffffffffffffffffffff16610d5161105e565b73ffffffffffffffffffffffffffffffffffffffff167f17307eab39ab6107e8899845ad3d59bd9653f200f220920489ca2b5937696c3183604051610d96919061238c565b60405180910390a35050565b610db3610dad61105e565b8361111f565b610df2576040517f08c379a0000000000000000000000000000000000000000000000000000000008152600401610de990612569565b60405180910390fd5b610dfe8484848461149b565b50505050565b6060610e0f82610ff2565b610e4e576040517f08c379a0000000000000000000000000000000000000000000000000000000008152600401610e4590612529565b60405180910390fd5b600860008381526020019081526020016000206004018054610e6f90612815565b80601f0160208091040260200160405190810160405280929190818152602001828054610e9b90612815565b8015610ee85780601f10610ebd57610100808354040283529160200191610ee8565b820191906000526020600020905b815481529060010190602001808311610ecb57829003601f168201915b50505050509050919050565b6000600560008473ffffffffffffffffffffffffffffffffffffffff1673ffffffffffffffffffffffffffffffffffffffff16815260200190815260200160002060008373ffffffffffffffffffffffffffffffffffffffff1673ffffffffffffffffffffffffffffffffffffffff16815260200190815260200160002060009054906101000a900460ff16905092915050565b60007f01ffc9a7000000000000000000000000000000000000000000000000000000007bffffffffffffffffffffffffffffffffffffffffffffffffffffffff1916827bffffffffffffffffffffffffffffffffffffffffffffffffffffffff1916149050919050565b60008073ffffffffffffffffffffffffffffffffffffffff166002600084815260200190815260200160002060009054906101000a900473ffffffffffffffffffffffffffffffffffffffff1673ffffffffffffffffffffffffffffffffffffffff1614159050919050565b600033905090565b816004600083815260200190815260200160002060006101000a81548173ffffffffffffffffffffffffffffffffffffffff021916908373ffffffffffffffffffffffffffffffffffffffff160217905550808273ffffffffffffffffffffffffffffffffffffffff166110d9836108f4565b73ffffffffffffffffffffffffffffffffffffffff167f8c5be1e5ebec7d5bd14f71427d1e84f3dd0314c0f7b2291e5b200ac8c7c3b92560405160405180910390a45050565b600061112a82610ff2565b611169576040517f08c379a000000000000000000000000000000000000000000000000000000000815260040161116090612449565b60405180910390fd5b6000611174836108f4565b90508073ffffffffffffffffffffffffffffffffffffffff168473ffffffffffffffffffffffffffffffffffffffff1614806111e357508373ffffffffffffffffffffffffffffffffffffffff166111cb846104e3565b73ffffffffffffffffffffffffffffffffffffffff16145b806111f457506111f38185610ef4565b5b91505092915050565b8273ffffffffffffffffffffffffffffffffffffffff1661121d826108f4565b73ffffffffffffffffffffffffffffffffffffffff1614611273576040517f08c379a000000000000000000000000000000000000000000000000000000000815260040161126a90612509565b60405180910390fd5b600073ffffffffffffffffffffffffffffffffffffffff168273ffffffffffffffffffffffffffffffffffffffff1614156112e3576040517f08c379a00000000000000000000000000000000000000000000000000000000081526004016112da90612409565b60405180910390fd5b6112ee8383836114f7565b6112f9600082611066565b6001600360008573ffffffffffffffffffffffffffffffffffffffff1673ffffffffffffffffffffffffffffffffffffffff1681526020019081526020016000206000828254611349919061272b565b925050819055506001600360008473ffffffffffffffffffffffffffffffffffffffff1673ffffffffffffffffffffffffffffffffffffffff16815260200190815260200160002060008282546113a091906126d5565b92505081905550816002600083815260200190815260200160002060006101000a81548173ffffffffffffffffffffffffffffffffffffffff021916908373ffffffffffffffffffffffffffffffffffffffff160217905550808273ffffffffffffffffffffffffffffffffffffffff168473ffffffffffffffffffffffffffffffffffffffff167fddf252ad1be2c89b69c2b068fc378daa952ba7f163c4a11628f55a4df523b3ef60405160405180910390a4505050565b6001816000016000828254019250508190555050565b600081600001549050919050565b6114978282604051806020016040528060008152506114fc565b5050565b6114a68484846111fd565b6114b284848484611557565b6114f1576040517f08c379a00000000000000000000000000000000000000000000000000000000081526004016114e8906123c9565b60405180910390fd5b50505050565b505050565b61150683836116ee565b6115136000848484611557565b611552576040517f08c379a0000000000000000000000000000000000000000000000000000000008152600401611549906123c9565b60405180910390fd5b505050565b60006115788473ffffffffffffffffffffffffffffffffffffffff166118bc565b156116e1578373ffffffffffffffffffffffffffffffffffffffff1663150b7a026115a161105e565b8786866040518563ffffffff1660e01b81526004016115c39493929190612340565b602060405180830381600087803b1580156115dd57600080fd5b505af192505050801561160e57506040513d601f19601f8201168201806040525081019061160b9190611c7b565b60015b611691573d806000811461163e576040519150601f19603f3d011682016040523d82523d6000602084013e611643565b606091505b50600081511415611689576040517f08c379a0000000000000000000000000000000000000000000000000000000008152600401611680906123c9565b60405180910390fd5b805181602001fd5b63150b7a0260e01b7bffffffffffffffffffffffffffffffffffffffffffffffffffffffff1916817bffffffffffffffffffffffffffffffffffffffffffffffffffffffff1916149150506116e6565b600190505b949350505050565b600073ffffffffffffffffffffffffffffffffffffffff168273ffffffffffffffffffffffffffffffffffffffff16141561175e576040517f08c379a0000000000000000000000000000000000000000000000000000000008152600401611755906124c9565b60405180910390fd5b61176781610ff2565b156117a7576040517f08c379a000000000000000000000000000000000000000000000000000000000815260040161179e906123e9565b60405180910390fd5b6117b3600083836114f7565b6001600360008473ffffffffffffffffffffffffffffffffffffffff1673ffffffffffffffffffffffffffffffffffffffff168152602001908152602001600020600082825461180391906126d5565b92505081905550816002600083815260200190815260200160002060006101000a81548173ffffffffffffffffffffffffffffffffffffffff021916908373ffffffffffffffffffffffffffffffffffffffff160217905550808273ffffffffffffffffffffffffffffffffffffffff16600073ffffffffffffffffffffffffffffffffffffffff167fddf252ad1be2c89b69c2b068fc378daa952ba7f163c4a11628f55a4df523b3ef60405160405180910390a45050565b600080823b905060008111915050919050565b8280546118db90612815565b90600052602060002090601f0160209004810192826118fd5760008555611944565b82601f1061191657805160ff1916838001178555611944565b82800160010185558215611944579182015b82811115611943578251825591602001919060010190611928565b5b5090506119519190611955565b5090565b5b8082111561196e576000816000905550600101611956565b5090565b60006119856119808461263d565b61260c565b90508281526020810184848401111561199d57600080fd5b6119a88482856127d3565b509392505050565b60006119c36119be8461266d565b61260c565b9050828152602081018484840111156119db57600080fd5b6119e68482856127d3565b509392505050565b6000813590506119fd816128e5565b92915050565b600081359050611a12816128fc565b92915050565b600081359050611a2781612913565b92915050565b600081519050611a3c81612913565b92915050565b600082601f830112611a5357600080fd5b8135611a63848260208601611972565b91505092915050565b600082601f830112611a7d57600080fd5b8135611a8d8482602086016119b0565b91505092915050565b600081359050611aa58161292a565b92915050565b600060208284031215611abd57600080fd5b6000611acb848285016119ee565b91505092915050565b60008060408385031215611ae757600080fd5b6000611af5858286016119ee565b9250506020611b06858286016119ee565b9150509250929050565b600080600060608486031215611b2557600080fd5b6000611b33868287016119ee565b9350506020611b44868287016119ee565b9250506040611b5586828701611a96565b9150509250925092565b60008060008060808587031215611b7557600080fd5b6000611b83878288016119ee565b9450506020611b94878288016119ee565b9350506040611ba587828801611a96565b925050606085013567ffffffffffffffff811115611bc257600080fd5b611bce87828801611a42565b91505092959194509250565b60008060408385031215611bed57600080fd5b6000611bfb858286016119ee565b9250506020611c0c85828601611a03565b9150509250929050565b60008060408385031215611c2957600080fd5b6000611c37858286016119ee565b9250506020611c4885828601611a96565b9150509250929050565b600060208284031215611c6457600080fd5b6000611c7284828501611a18565b91505092915050565b600060208284031215611c8d57600080fd5b6000611c9b84828501611a2d565b91505092915050565b600080600060608486031215611cb957600080fd5b600084013567ffffffffffffffff811115611cd357600080fd5b611cdf86828701611a6c565b935050602084013567ffffffffffffffff811115611cfc57600080fd5b611d0886828701611a6c565b925050604084013567ffffffffffffffff811115611d2557600080fd5b611d3186828701611a6c565b9150509250925092565b600060208284031215611d4d57600080fd5b6000611d5b84828501611a96565b91505092915050565b611d6d8161275f565b82525050565b611d7c81612771565b82525050565b6000611d8d8261269d565b611d9781856126b3565b9350611da78185602086016127e2565b611db0816128d4565b840191505092915050565b6000611dc6826126a8565b611dd081856126c4565b9350611de08185602086016127e2565b611de9816128d4565b840191505092915050565b6000611e016032836126c4565b91507f4552433732313a207472616e7366657220746f206e6f6e20455243373231526560008301527f63656976657220696d706c656d656e74657200000000000000000000000000006020830152604082019050919050565b6000611e67601c836126c4565b91507f4552433732313a20746f6b656e20616c7265616479206d696e746564000000006000830152602082019050919050565b6000611ea76024836126c4565b91507f4552433732313a207472616e7366657220746f20746865207a65726f2061646460008301527f72657373000000000000000000000000000000000000000000000000000000006020830152604082019050919050565b6000611f0d6019836126c4565b91507f4552433732313a20617070726f766520746f2063616c6c6572000000000000006000830152602082019050919050565b6000611f4d602c836126c4565b91507f4552433732313a206f70657261746f7220717565727920666f72206e6f6e657860008301527f697374656e7420746f6b656e00000000000000000000000000000000000000006020830152604082019050919050565b6000611fb36038836126c4565b91507f4552433732313a20617070726f76652063616c6c6572206973206e6f74206f7760008301527f6e6572206e6f7220617070726f76656420666f7220616c6c00000000000000006020830152604082019050919050565b6000612019602a836126c4565b91507f4552433732313a2062616c616e636520717565727920666f7220746865207a6560008301527f726f2061646472657373000000000000000000000000000000000000000000006020830152604082019050919050565b600061207f6029836126c4565b91507f4552433732313a206f776e657220717565727920666f72206e6f6e657869737460008301527f656e7420746f6b656e00000000000000000000000000000000000000000000006020830152604082019050919050565b60006120e56020836126c4565b91507f4552433732313a206d696e7420746f20746865207a65726f20616464726573736000830152602082019050919050565b6000612125602c836126c4565b91507f4552433732313a20617070726f76656420717565727920666f72206e6f6e657860008301527f697374656e7420746f6b656e00000000000000000000000000000000000000006020830152604082019050919050565b600061218b6029836126c4565b91507f4552433732313a207472616e73666572206f6620746f6b656e2074686174206960008301527f73206e6f74206f776e00000000000000000000000000000000000000000000006020830152604082019050919050565b60006121f1602f836126c4565b91507f4552433732314d657461646174613a2055524920717565727920666f72206e6f60008301527f6e6578697374656e7420746f6b656e00000000000000000000000000000000006020830152604082019050919050565b60006122576021836126c4565b91507f4552433732313a20617070726f76616c20746f2063757272656e74206f776e6560008301527f72000000000000000000000000000000000000000000000000000000000000006020830152604082019050919050565b60006122bd6031836126c4565b91507f4552433732313a207472616e736665722063616c6c6572206973206e6f74206f60008301527f776e6572206e6f7220617070726f7665640000000000000000000000000000006020830152604082019050919050565b61231f816127c9565b82525050565b600060208201905061233a6000830184611d64565b92915050565b60006080820190506123556000830187611d64565b6123626020830186611d64565b61236f6040830185612316565b81810360608301526123818184611d82565b905095945050505050565b60006020820190506123a16000830184611d73565b92915050565b600060208201905081810360008301526123c18184611dbb565b905092915050565b600060208201905081810360008301526123e281611df4565b9050919050565b6000602082019050818103600083015261240281611e5a565b9050919050565b6000602082019050818103600083015261242281611e9a565b9050919050565b6000602082019050818103600083015261244281611f00565b9050919050565b6000602082019050818103600083015261246281611f40565b9050919050565b6000602082019050818103600083015261248281611fa6565b9050919050565b600060208201905081810360008301526124a28161200c565b9050919050565b600060208201905081810360008301526124c281612072565b9050919050565b600060208201905081810360008301526124e2816120d8565b9050919050565b6000602082019050818103600083015261250281612118565b9050919050565b600060208201905081810360008301526125228161217e565b9050919050565b60006020820190508181036000830152612542816121e4565b9050919050565b600060208201905081810360008301526125628161224a565b9050919050565b60006020820190508181036000830152612582816122b0565b9050919050565b600060208201905061259e6000830184612316565b92915050565b600060a0820190506125b96000830188612316565b81810360208301526125cb8187611dbb565b905081810360408301526125df8186611dbb565b90506125ee6060830185611d64565b81810360808301526126008184611dbb565b90509695505050505050565b6000604051905081810181811067ffffffffffffffff82111715612633576126326128a5565b5b8060405250919050565b600067ffffffffffffffff821115612658576126576128a5565b5b601f19601f8301169050602081019050919050565b600067ffffffffffffffff821115612688576126876128a5565b5b601f19601f8301169050602081019050919050565b600081519050919050565b600081519050919050565b600082825260208201905092915050565b600082825260208201905092915050565b60006126e0826127c9565b91506126eb836127c9565b9250827fffffffffffffffffffffffffffffffffffffffffffffffffffffffffffffffff038211156127205761271f612847565b5b828201905092915050565b6000612736826127c9565b9150612741836127c9565b92508282101561275457612753612847565b5b828203905092915050565b600061276a826127a9565b9050919050565b60008115159050919050565b60007fffffffff0000000000000000000000000000000000000000000000000000000082169050919050565b600073ffffffffffffffffffffffffffffffffffffffff82169050919050565b6000819050919050565b82818337600083830152505050565b60005b838110156128005780820151818401526020810190506127e5565b8381111561280f576000848401525b50505050565b6000600282049050600182168061282d57607f821691505b6020821081141561284157612840612876565b5b50919050565b7f4e487b7100000000000000000000000000000000000000000000000000000000600052601160045260246000fd5b7f4e487b7100000000000000000000000000000000000000000000000000000000600052602260045260246000fd5b7f4e487b7100000000000000000000000000000000000000000000000000000000600052604160045260246000fd5b6000601f19601f8301169050919050565b6128ee8161275f565b81146128f957600080fd5b50565b61290581612771565b811461291057600080fd5b50565b61291c8161277d565b811461292757600080fd5b50565b612933816127c9565b811461293e57600080fd5b5056fea2646970667358221220a03657b39fde79f994c32228d31ca998c78209076dc6851250fbe4e002d83e6e64736f6c63430008000033",
  "immutableReferences": {},
  "source": "// SPDX-License-Identifier: MIT\r\npragma solidity >=0.4.21 <0.9.0;\r\n\r\nimport \"@openzeppelin/contracts/token/ERC721/ERC721.sol\";\r\nimport \"@openzeppelin/contracts/utils/Counters.sol\";\r\n\r\ncontract myNFTs is ERC721 {\r\n    uint public totalCount=0;\r\n    using Counters for Counters.Counter;\r\n    Counters.Counter private _tokenIds;\r\n\r\n    constructor() ERC721(\"MuzammilSiddiquiToken\", \"MST\"){}\r\n\r\n    struct Item {\r\n        uint256 id;\r\n        string name;\r\n        string description;\r\n        address creator;\r\n        string uri;\r\n    }\r\n\r\n    mapping (uint256 => Item) public Items;\r\n\r\n    function createItem(string memory uri,string memory nam, string memory description) public returns (uint256){\r\n        _tokenIds.increment();\r\n        uint256 newItemId = _tokenIds.current();\r\n        _safeMint(msg.sender, newItemId);\r\n\r\n        Items[newItemId] = Item(newItemId,nam, description, msg.sender, uri);\r\ntotalCount = newItemId;\r\n        return newItemId;\r\n    }\r\n\r\n    function tokenURI(uint256 tokenId) public view override returns (string memory) {\r\n        require(_exists(tokenId), \"ERC721Metadata: URI query for nonexistent token\");\r\n\r\n       return Items[tokenId].uri;\r\n    }\r\n}",
  "sourcePath": "D:\\BlockChainLearning\\nftBsc\\starter_kit\\src\\contracts\\myNFTs.sol",
  "compiler": {
    "name": "solc",
    "version": "0.8.0+commit.c7dfd78e.Emscripten.clang"
  },
  "schemaVersion": "3.4.3",
  "updatedAt": "2021-10-19T09:52:03.116Z",
  "networkType": "ethereum",
  "devdoc": {
    "kind": "dev",
    "methods": {
      "approve(address,uint256)": {
        "details": "See {IERC721-approve}."
      },
      "balanceOf(address)": {
        "details": "See {IERC721-balanceOf}."
      },
      "getApproved(uint256)": {
        "details": "See {IERC721-getApproved}."
      },
      "isApprovedForAll(address,address)": {
        "details": "See {IERC721-isApprovedForAll}."
      },
      "name()": {
        "details": "See {IERC721Metadata-name}."
      },
      "ownerOf(uint256)": {
        "details": "See {IERC721-ownerOf}."
      },
      "safeTransferFrom(address,address,uint256)": {
        "details": "See {IERC721-safeTransferFrom}."
      },
      "safeTransferFrom(address,address,uint256,bytes)": {
        "details": "See {IERC721-safeTransferFrom}."
      },
      "setApprovalForAll(address,bool)": {
        "details": "See {IERC721-setApprovalForAll}."
      },
      "supportsInterface(bytes4)": {
        "details": "See {IERC165-supportsInterface}."
      },
      "symbol()": {
        "details": "See {IERC721Metadata-symbol}."
      },
      "tokenURI(uint256)": {
        "details": "See {IERC721Metadata-tokenURI}."
      },
      "transferFrom(address,address,uint256)": {
        "details": "See {IERC721-transferFrom}."
      }
    },
    "version": 1
  },
  "userdoc": {
    "kind": "user",
    "methods": {},
    "version": 1
  }
}